{
    "_format": "hh-sol-artifact-1",
    "contractName": "CreateCall",
    "sourceName": "src/test/CreateCall.sol",
    "abi": [
        {
            "anonymous": false,
            "inputs": [
                {
                    "indexed": true,
                    "internalType": "address",
                    "name": "newContract",
                    "type": "address"
                }
            ],
            "name": "ContractCreation",
            "type": "event"
        },
        {
            "inputs": [
                {
                    "internalType": "uint256",
                    "name": "value",
                    "type": "uint256"
                },
                {
                    "internalType": "bytes",
                    "name": "deploymentData",
                    "type": "bytes"
                }
            ],
            "name": "performCreate",
            "outputs": [
                {
                    "internalType": "address",
                    "name": "newContract",
                    "type": "address"
                }
            ],
            "stateMutability": "nonpayable",
            "type": "function"
        },
        {
            "inputs": [
                {
                    "internalType": "uint256",
                    "name": "value",
                    "type": "uint256"
                },
                {
                    "internalType": "bytes",
                    "name": "deploymentData",
                    "type": "bytes"
                },
                {
                    "internalType": "bytes32",
                    "name": "salt",
                    "type": "bytes32"
                }
            ],
            "name": "performCreate2",
            "outputs": [
                {
                    "internalType": "address",
                    "name": "newContract",
                    "type": "address"
                }
            ],
            "stateMutability": "nonpayable",
            "type": "function"
        }
    ],
    "bytecode": "0x608060405234801561001057600080fd5b506105c5806100206000396000f3fe608060405234801561001057600080fd5b50600436106100365760003560e01c80634847be6f1461003b5780634c8c9ea11461006b575b600080fd5b610055600480360381019061005091906103eb565b61009b565b604051610062919061049b565b60405180910390f35b610085600480360381019061008091906104b6565b610161565b604051610092919061049b565b60405180910390f35b60008183518460200186f59050600073ffffffffffffffffffffffffffffffffffffffff168173ffffffffffffffffffffffffffffffffffffffff1603610117576040517f08c379a000000000000000000000000000000000000000000000000000000000815260040161010e9061056f565b60405180910390fd5b8073ffffffffffffffffffffffffffffffffffffffff167f4db17dd5e4732fb6da34a148104a592783ca119a1e7bb8829eba6cbadef0b51160405160405180910390a29392505050565b600081516020830184f09050600073ffffffffffffffffffffffffffffffffffffffff168173ffffffffffffffffffffffffffffffffffffffff16036101dc576040517f08c379a00000000000000000000000000000000000000000000000000000000081526004016101d39061056f565b60405180910390fd5b8073ffffffffffffffffffffffffffffffffffffffff167f4db17dd5e4732fb6da34a148104a592783ca119a1e7bb8829eba6cbadef0b51160405160405180910390a292915050565b6000604051905090565b600080fd5b600080fd5b6000819050919050565b61024c81610239565b811461025757600080fd5b50565b60008135905061026981610243565b92915050565b600080fd5b600080fd5b6000601f19601f8301169050919050565b7f4e487b7100000000000000000000000000000000000000000000000000000000600052604160045260246000fd5b6102c282610279565b810181811067ffffffffffffffff821117156102e1576102e061028a565b5b80604052505050565b60006102f4610225565b905061030082826102b9565b919050565b600067ffffffffffffffff8211156103205761031f61028a565b5b61032982610279565b9050602081019050919050565b82818337600083830152505050565b600061035861035384610305565b6102ea565b90508281526020810184848401111561037457610373610274565b5b61037f848285610336565b509392505050565b600082601f83011261039c5761039b61026f565b5b81356103ac848260208601610345565b91505092915050565b6000819050919050565b6103c8816103b5565b81146103d357600080fd5b50565b6000813590506103e5816103bf565b92915050565b6000806000606084860312156104045761040361022f565b5b60006104128682870161025a565b935050602084013567ffffffffffffffff81111561043357610432610234565b5b61043f86828701610387565b9250506040610450868287016103d6565b9150509250925092565b600073ffffffffffffffffffffffffffffffffffffffff82169050919050565b60006104858261045a565b9050919050565b6104958161047a565b82525050565b60006020820190506104b0600083018461048c565b92915050565b600080604083850312156104cd576104cc61022f565b5b60006104db8582860161025a565b925050602083013567ffffffffffffffff8111156104fc576104fb610234565b5b61050885828601610387565b9150509250929050565b600082825260208201905092915050565b7f436f756c64206e6f74206465706c6f7920636f6e747261637400000000000000600082015250565b6000610559601983610512565b915061056482610523565b602082019050919050565b600060208201905081810360008301526105888161054c565b905091905056fea2646970667358221220698a0bc4b24ed8b76ce3e5cc4b52b8b68d9c612624005b46472cb0812febe46464736f6c63430008130033",
    "linkReferences": {},
    "deployedLinkReferences": {}
}