{
    "_format": "hh-sol-artifact-1",
    "contractName": "SafeMPECDH",
    "sourceName": "src/SafeMPECDH.sol",
    "abi": [
        {
            "inputs": [
                {
                    "internalType": "address",
                    "name": "_master",
                    "type": "address"
                }
            ],
            "stateMutability": "nonpayable",
            "type": "constructor"
        },
        {
            "anonymous": false,
            "inputs": [
                {
                    "indexed": false,
                    "internalType": "address[]",
                    "name": "signers",
                    "type": "address[]"
                }
            ],
            "name": "Ready",
            "type": "event"
        },
        {
            "anonymous": false,
            "inputs": [
                {
                    "indexed": false,
                    "internalType": "address[]",
                    "name": "signers",
                    "type": "address[]"
                }
            ],
            "name": "Reconstruct",
            "type": "event"
        },
        {
            "inputs": [],
            "name": "blocking",
            "outputs": [
                {
                    "internalType": "address[]",
                    "name": "_signers",
                    "type": "address[]"
                }
            ],
            "stateMutability": "view",
            "type": "function"
        },
        {
            "inputs": [
                {
                    "internalType": "uint256",
                    "name": "_slot",
                    "type": "uint256"
                }
            ],
            "name": "getQueue",
            "outputs": [
                {
                    "internalType": "bytes32[]",
                    "name": "_keys",
                    "type": "bytes32[]"
                }
            ],
            "stateMutability": "view",
            "type": "function"
        },
        {
            "inputs": [],
            "name": "getSigners",
            "outputs": [
                {
                    "internalType": "address[]",
                    "name": "_signers",
                    "type": "address[]"
                }
            ],
            "stateMutability": "view",
            "type": "function"
        },
        {
            "inputs": [],
            "name": "master",
            "outputs": [
                {
                    "internalType": "address",
                    "name": "",
                    "type": "address"
                }
            ],
            "stateMutability": "view",
            "type": "function"
        },
        {
            "inputs": [
                {
                    "internalType": "address",
                    "name": "_signer",
                    "type": "address"
                }
            ],
            "name": "prep",
            "outputs": [
                {
                    "internalType": "enum MPECDH.Step",
                    "name": "_status",
                    "type": "uint8"
                },
                {
                    "internalType": "bytes32",
                    "name": "_key",
                    "type": "bytes32"
                }
            ],
            "stateMutability": "view",
            "type": "function"
        },
        {
            "inputs": [
                {
                    "internalType": "uint256",
                    "name": "",
                    "type": "uint256"
                }
            ],
            "name": "processed",
            "outputs": [
                {
                    "internalType": "uint256",
                    "name": "",
                    "type": "uint256"
                }
            ],
            "stateMutability": "view",
            "type": "function"
        },
        {
            "inputs": [
                {
                    "internalType": "uint256",
                    "name": "",
                    "type": "uint256"
                },
                {
                    "internalType": "uint256",
                    "name": "",
                    "type": "uint256"
                }
            ],
            "name": "queues",
            "outputs": [
                {
                    "internalType": "bytes32",
                    "name": "",
                    "type": "bytes32"
                }
            ],
            "stateMutability": "view",
            "type": "function"
        },
        {
            "inputs": [],
            "name": "reconstruct",
            "outputs": [],
            "stateMutability": "nonpayable",
            "type": "function"
        },
        {
            "inputs": [
                {
                    "internalType": "uint256",
                    "name": "",
                    "type": "uint256"
                }
            ],
            "name": "signers",
            "outputs": [
                {
                    "internalType": "address",
                    "name": "",
                    "type": "address"
                }
            ],
            "stateMutability": "view",
            "type": "function"
        },
        {
            "inputs": [
                {
                    "internalType": "address",
                    "name": "_signer",
                    "type": "address"
                }
            ],
            "name": "source",
            "outputs": [
                {
                    "internalType": "uint256",
                    "name": "_slot",
                    "type": "uint256"
                }
            ],
            "stateMutability": "view",
            "type": "function"
        },
        {
            "inputs": [
                {
                    "internalType": "bytes32",
                    "name": "_key",
                    "type": "bytes32"
                }
            ],
            "name": "step",
            "outputs": [],
            "stateMutability": "nonpayable",
            "type": "function"
        },
        {
            "inputs": [
                {
                    "internalType": "uint256",
                    "name": "_sourceSlot",
                    "type": "uint256"
                }
            ],
            "name": "target",
            "outputs": [
                {
                    "internalType": "uint256",
                    "name": "_slot",
                    "type": "uint256"
                }
            ],
            "stateMutability": "view",
            "type": "function"
        }
    ],
    "bytecode": "0x60a06040523480156200001157600080fd5b5060405162001ea538038062001ea5833981810160405281019062000037919062000243565b808073ffffffffffffffffffffffffffffffffffffffff1660808173ffffffffffffffffffffffffffffffffffffffff16815250506200007c6200009c60201b60201c565b60009080519060200190620000939291906200011c565b5050506200043b565b606060805173ffffffffffffffffffffffffffffffffffffffff1663a0e67e2b6040518163ffffffff1660e01b8152600401600060405180830381865afa158015620000ec573d6000803e3d6000fd5b505050506040513d6000823e3d601f19601f82011682018060405250810190620001179190620003ea565b905090565b82805482825590600052602060002090810192821562000198579160200282015b82811115620001975782518260006101000a81548173ffffffffffffffffffffffffffffffffffffffff021916908373ffffffffffffffffffffffffffffffffffffffff160217905550916020019190600101906200013d565b5b509050620001a79190620001ab565b5090565b5b80821115620001c6576000816000905550600101620001ac565b5090565b6000604051905090565b600080fd5b600080fd5b600073ffffffffffffffffffffffffffffffffffffffff82169050919050565b60006200020b82620001de565b9050919050565b6200021d81620001fe565b81146200022957600080fd5b50565b6000815190506200023d8162000212565b92915050565b6000602082840312156200025c576200025b620001d4565b5b60006200026c848285016200022c565b91505092915050565b600080fd5b6000601f19601f8301169050919050565b7f4e487b7100000000000000000000000000000000000000000000000000000000600052604160045260246000fd5b620002c5826200027a565b810181811067ffffffffffffffff82111715620002e757620002e66200028b565b5b80604052505050565b6000620002fc620001ca565b90506200030a8282620002ba565b919050565b600067ffffffffffffffff8211156200032d576200032c6200028b565b5b602082029050602081019050919050565b600080fd5b60006200035a62000354846200030f565b620002f0565b9050808382526020820190506020840283018581111562000380576200037f6200033e565b5b835b81811015620003ad57806200039888826200022c565b84526020840193505060208101905062000382565b5050509392505050565b600082601f830112620003cf57620003ce62000275565b5b8151620003e184826020860162000343565b91505092915050565b600060208284031215620004035762000402620001d4565b5b600082015167ffffffffffffffff811115620004245762000423620001d9565b5b6200043284828501620003b7565b91505092915050565b608051611a406200046560003960008181610d1101528181610e510152610e770152611a406000f3fe608060405234801561001057600080fd5b50600436106100b35760003560e01c80639811c7c1116100715780639811c7c1146101b2578063d3667131146101e2578063da138ce714610200578063de7af11114610230578063e18543fa14610261578063ee97f7f31461026b576100b3565b8062886f14146100b857806305a79e06146100e85780630b578ef5146101185780630be8fffc146101345780632079fb9a1461016457806394cf795e14610194575b600080fd5b6100d260048036038101906100cd919061103d565b610289565b6040516100df9190611096565b60405180910390f35b61010260048036038101906100fd91906110b1565b6102ba565b60405161010f91906110ed565b60405180910390f35b610132600480360381019061012d9190611134565b6102d2565b005b61014e600480360381019061014991906110b1565b610612565b60405161015b919061121f565b60405180910390f35b61017e600480360381019061017991906110b1565b61067d565b60405161018b9190611282565b60405180910390f35b61019c6106bc565b6040516101a9919061135b565b60405180910390f35b6101cc60048036038101906101c791906110b1565b61074a565b6040516101d991906110ed565b60405180910390f35b6101ea6107e2565b6040516101f7919061135b565b60405180910390f35b61021a600480360381019061021591906113a9565b610a0e565b60405161022791906110ed565b60405180910390f35b61024a600480360381019061024591906113a9565b610ada565b60405161025892919061144d565b60405180910390f35b610269610d0f565b005b610273610e4f565b6040516102809190611282565b60405180910390f35b600160205281600052604060002081815481106102a557600080fd5b90600052602060002001600091509150505481565b60026020528060005260406000206000915090505481565b60006102dc610e73565b90506000805b8251811015610354578281815181106102fe576102fd611476565b5b602002602001015173ffffffffffffffffffffffffffffffffffffffff163373ffffffffffffffffffffffffffffffffffffffff16036103415760019150610354565b808061034c906114d4565b9150506102e2565b5080610395576040517f08c379a000000000000000000000000000000000000000000000000000000000815260040161038c90611579565b60405180910390fd5b60006103a033610a0e565b905060006002600083815260200190815260200160002054905060005b600080549050811015610463578281146104505781600260008381526020019081526020016000205414806104105750816001600260008481526020019081526020016000205461040e9190611599565b145b61044f576040517f08c379a000000000000000000000000000000000000000000000000000000000815260040161044690611619565b60405180910390fd5b5b808061045b906114d4565b9150506103bd565b50600061046f8361074a565b90507fffffffffffffffffffffffffffffffffffffffffffffffffffffffffffffffff81036104d3576040517f08c379a00000000000000000000000000000000000000000000000000000000081526004016104ca90611685565b60405180910390fd5b60016000805490506104e59190611599565b6001600083815260200190815260200160002080549050101561060a5760016000828152602001908152602001600020869080600181540180825580915050600190039060005260206000200160009091909190915055600160026000858152602001908152602001600020600082825461056091906116a5565b9250508190555060006001905060005b6000805490508110156105c857600160008054905061058f9190611599565b600160008381526020019081526020016000208054905010156105b557600091506105c8565b80806105c0906114d4565b915050610570565b508015610608577f14b5aaffe09636095856f040f0cd5d32f1c44ccb98146070940a92c649b4d22360006040516105ff91906117c5565b60405180910390a15b505b505050505050565b60606001600083815260200190815260200160002080548060200260200160405190810160405280929190818152602001828054801561067157602002820191906000526020600020905b81548152602001906001019080831161065d575b50505050509050919050565b6000818154811061068d57600080fd5b906000526020600020016000915054906101000a900473ffffffffffffffffffffffffffffffffffffffff1681565b6060600080548060200260200160405190810160405280929190818152602001828054801561074057602002820191906000526020600020905b8160009054906101000a900473ffffffffffffffffffffffffffffffffffffffff1673ffffffffffffffffffffffffffffffffffffffff16815260200190600101908083116106f6575b5050505050905090565b60007fffffffffffffffffffffffffffffffffffffffffffffffffffffffffffffffff82148061077f57506000805490508210155b156107ac577fffffffffffffffffffffffffffffffffffffffffffffffffffffffffffffffff90506107dd565b60016000805490506107be9190611599565b82036107cd57600090506107dd565b6001826107da91906116a5565b90505b919050565b60606000805b60008054905081101561084057816001600083815260200190815260200160002080549050111561082d57600160008281526020019081526020016000208054905091505b8080610838906114d4565b9150506107e8565b506000805b60008054905081101561089257826001600083815260200190815260200160002080549050101561087f57818061087b906114d4565b9250505b808061088a906114d4565b915050610845565b508067ffffffffffffffff8111156108ad576108ac6117e7565b5b6040519080825280602002602001820160405280156108db5781602001602082028036833780820191505090505b5092506000805b600080549050811015610a0757836001600061094361093e6000868154811061090e5761090d611476565b5b9060005260206000200160009054906101000a900473ffffffffffffffffffffffffffffffffffffffff16610a0e565b61074a565b81526020019081526020016000208054905010156109f4576000818154811061096f5761096e611476565b5b9060005260206000200160009054906101000a900473ffffffffffffffffffffffffffffffffffffffff168583806109a6906114d4565b9450815181106109b9576109b8611476565b5b602002602001019073ffffffffffffffffffffffffffffffffffffffff16908173ffffffffffffffffffffffffffffffffffffffff16815250505b80806109ff906114d4565b9150506108e2565b5050505090565b600080600090505b600080549050811015610ab05760008181548110610a3757610a36611476565b5b9060005260206000200160009054906101000a900473ffffffffffffffffffffffffffffffffffffffff1673ffffffffffffffffffffffffffffffffffffffff168373ffffffffffffffffffffffffffffffffffffffff1603610a9d5780915050610ad5565b8080610aa8906114d4565b915050610a16565b507fffffffffffffffffffffffffffffffffffffffffffffffffffffffffffffffff90505b919050565b6000806000610ae884610a0e565b90506000610af58261074a565b90507fffffffffffffffffffffffffffffffffffffffffffffffffffffffffffffffff8103610b59576040517f08c379a0000000000000000000000000000000000000000000000000000000008152600401610b5090611685565b60405180910390fd5b6001600080549050610b6b9190611599565b600160008381526020019081526020016000208054905003610c4357600260008381526020019081526020016000205460016000848152602001908152602001600020805490501080610bd1575060006002600084815260200190815260200160002054145b15610be75760008060001b935093505050610d0a565b60006001600084815260200190815260200160002060016002600086815260200190815260200160002054610c1c9190611599565b81548110610c2d57610c2c611476565b5b9060005260206000200154935093505050610d0a565b6001600083815260200190815260200160002080549050600160008381526020019081526020016000208054905011610cfd576000600260008481526020019081526020016000205403610ca25760036000801b935093505050610d0a565b600180600084815260200190815260200160002060016002600086815260200190815260200160002054610cd69190611599565b81548110610ce757610ce6611476565b5b9060005260206000200154935093505050610d0a565b60026000801b9350935050505b915091565b7f000000000000000000000000000000000000000000000000000000000000000073ffffffffffffffffffffffffffffffffffffffff163373ffffffffffffffffffffffffffffffffffffffff1614610d9d576040517f08c379a0000000000000000000000000000000000000000000000000000000008152600401610d9490611862565b60405180910390fd5b60005b600080549050811015610df657600160008281526020019081526020016000206000610dcc9190610f0e565b60026000828152602001908152602001600020600090558080610dee906114d4565b915050610da0565b50610dff610e73565b60009080519060200190610e14929190610f2f565b507f0f01dbefd67125443fa34246c42775683312e65f996ec26b7b257f91992615786000604051610e4591906117c5565b60405180910390a1565b7f000000000000000000000000000000000000000000000000000000000000000081565b60607f000000000000000000000000000000000000000000000000000000000000000073ffffffffffffffffffffffffffffffffffffffff1663a0e67e2b6040518163ffffffff1660e01b8152600401600060405180830381865afa158015610ee0573d6000803e3d6000fd5b505050506040513d6000823e3d601f19601f82011682018060405250810190610f0991906119c1565b905090565b5080546000825590600052602060002090810190610f2c9190610fb9565b50565b828054828255906000526020600020908101928215610fa8579160200282015b82811115610fa75782518260006101000a81548173ffffffffffffffffffffffffffffffffffffffff021916908373ffffffffffffffffffffffffffffffffffffffff16021790555091602001919060010190610f4f565b5b509050610fb59190610fd6565b5090565b5b80821115610fd2576000816000905550600101610fba565b5090565b5b80821115610fef576000816000905550600101610fd7565b5090565b6000604051905090565b600080fd5b600080fd5b6000819050919050565b61101a81611007565b811461102557600080fd5b50565b60008135905061103781611011565b92915050565b6000806040838503121561105457611053610ffd565b5b600061106285828601611028565b925050602061107385828601611028565b9150509250929050565b6000819050919050565b6110908161107d565b82525050565b60006020820190506110ab6000830184611087565b92915050565b6000602082840312156110c7576110c6610ffd565b5b60006110d584828501611028565b91505092915050565b6110e781611007565b82525050565b600060208201905061110260008301846110de565b92915050565b6111118161107d565b811461111c57600080fd5b50565b60008135905061112e81611108565b92915050565b60006020828403121561114a57611149610ffd565b5b60006111588482850161111f565b91505092915050565b600081519050919050565b600082825260208201905092915050565b6000819050602082019050919050565b6111968161107d565b82525050565b60006111a8838361118d565b60208301905092915050565b6000602082019050919050565b60006111cc82611161565b6111d6818561116c565b93506111e18361117d565b8060005b838110156112125781516111f9888261119c565b9750611204836111b4565b9250506001810190506111e5565b5085935050505092915050565b6000602082019050818103600083015261123981846111c1565b905092915050565b600073ffffffffffffffffffffffffffffffffffffffff82169050919050565b600061126c82611241565b9050919050565b61127c81611261565b82525050565b60006020820190506112976000830184611273565b92915050565b600081519050919050565b600082825260208201905092915050565b6000819050602082019050919050565b6112d281611261565b82525050565b60006112e483836112c9565b60208301905092915050565b6000602082019050919050565b60006113088261129d565b61131281856112a8565b935061131d836112b9565b8060005b8381101561134e57815161133588826112d8565b9750611340836112f0565b925050600181019050611321565b5085935050505092915050565b6000602082019050818103600083015261137581846112fd565b905092915050565b61138681611261565b811461139157600080fd5b50565b6000813590506113a38161137d565b92915050565b6000602082840312156113bf576113be610ffd565b5b60006113cd84828501611394565b91505092915050565b7f4e487b7100000000000000000000000000000000000000000000000000000000600052602160045260246000fd5b60048110611416576114156113d6565b5b50565b600081905061142782611405565b919050565b600061143782611419565b9050919050565b6114478161142c565b82525050565b6000604082019050611462600083018561143e565b61146f6020830184611087565b9392505050565b7f4e487b7100000000000000000000000000000000000000000000000000000000600052603260045260246000fd5b7f4e487b7100000000000000000000000000000000000000000000000000000000600052601160045260246000fd5b60006114df82611007565b91507fffffffffffffffffffffffffffffffffffffffffffffffffffffffffffffffff8203611511576115106114a5565b5b600182019050919050565b600082825260208201905092915050565b7f6f6e6c79207369676e6572730000000000000000000000000000000000000000600082015250565b6000611563600c8361151c565b915061156e8261152d565b602082019050919050565b6000602082019050818103600083015261159281611556565b9050919050565b60006115a482611007565b91506115af83611007565b92508282039050818111156115c7576115c66114a5565b5b92915050565b7f70726576696f757320726f756e64206e6f742079657420636f6d706c65746500600082015250565b6000611603601f8361151c565b915061160e826115cd565b602082019050919050565b60006020820190508181036000830152611632816115f6565b9050919050565b7f6e6f207375636820736c6f740000000000000000000000000000000000000000600082015250565b600061166f600c8361151c565b915061167a82611639565b602082019050919050565b6000602082019050818103600083015261169e81611662565b9050919050565b60006116b082611007565b91506116bb83611007565b92508282019050808211156116d3576116d26114a5565b5b92915050565b600081549050919050565b60008190508160005260206000209050919050565b60008160001c9050919050565b600073ffffffffffffffffffffffffffffffffffffffff82169050919050565b6000611739611734836116f9565b611706565b9050919050565b600061174c8254611726565b9050919050565b6000600182019050919050565b600061176b826116d9565b61177581856112a8565b9350611780836116e4565b8060005b838110156117b85761179582611740565b61179f88826112d8565b97506117aa83611753565b925050600181019050611784565b5085935050505092915050565b600060208201905081810360008301526117df8184611760565b905092915050565b7f4e487b7100000000000000000000000000000000000000000000000000000000600052604160045260246000fd5b7f6f6e6c79206d6173746572000000000000000000000000000000000000000000600082015250565b600061184c600b8361151c565b915061185782611816565b602082019050919050565b6000602082019050818103600083015261187b8161183f565b9050919050565b600080fd5b6000601f19601f8301169050919050565b6118a182611887565b810181811067ffffffffffffffff821117156118c0576118bf6117e7565b5b80604052505050565b60006118d3610ff3565b90506118df8282611898565b919050565b600067ffffffffffffffff8211156118ff576118fe6117e7565b5b602082029050602081019050919050565b600080fd5b6000815190506119248161137d565b92915050565b600061193d611938846118e4565b6118c9565b905080838252602082019050602084028301858111156119605761195f611910565b5b835b8181101561198957806119758882611915565b845260208401935050602081019050611962565b5050509392505050565b600082601f8301126119a8576119a7611882565b5b81516119b884826020860161192a565b91505092915050565b6000602082840312156119d7576119d6610ffd565b5b600082015167ffffffffffffffff8111156119f5576119f4611002565b5b611a0184828501611993565b9150509291505056fea264697066735822122083d7b20bb4d1146eccb1d0f430b3cefbb2eb91820cf468430ebeccff097efce564736f6c63430008130033",
    "linkReferences": {},
    "deployedLinkReferences": {}
}