{
    "_format": "hh-sol-artifact-1",
    "contractName": "SafeMock",
    "sourceName": "src/test/SafeMock.sol",
    "abi": [
        {
            "inputs": [
                {
                    "internalType": "address[]",
                    "name": "_owners",
                    "type": "address[]"
                },
                {
                    "internalType": "uint256",
                    "name": "_treshold",
                    "type": "uint256"
                }
            ],
            "stateMutability": "nonpayable",
            "type": "constructor"
        },
        {
            "anonymous": false,
            "inputs": [
                {
                    "indexed": true,
                    "internalType": "address",
                    "name": "owner",
                    "type": "address"
                }
            ],
            "name": "AddedOwner",
            "type": "event"
        },
        {
            "anonymous": false,
            "inputs": [
                {
                    "indexed": true,
                    "internalType": "address",
                    "name": "owner",
                    "type": "address"
                },
                {
                    "indexed": true,
                    "internalType": "bytes32",
                    "name": "approvedHash",
                    "type": "bytes32"
                }
            ],
            "name": "ApproveHash",
            "type": "event"
        },
        {
            "anonymous": false,
            "inputs": [
                {
                    "indexed": false,
                    "internalType": "uint256",
                    "name": "threshold",
                    "type": "uint256"
                }
            ],
            "name": "ChangedThreshold",
            "type": "event"
        },
        {
            "anonymous": false,
            "inputs": [
                {
                    "indexed": true,
                    "internalType": "address",
                    "name": "to",
                    "type": "address"
                },
                {
                    "indexed": false,
                    "internalType": "uint256",
                    "name": "value",
                    "type": "uint256"
                },
                {
                    "indexed": false,
                    "internalType": "bytes",
                    "name": "data",
                    "type": "bytes"
                },
                {
                    "indexed": false,
                    "internalType": "enum SafeMock.Operation",
                    "name": "operation",
                    "type": "uint8"
                },
                {
                    "indexed": false,
                    "internalType": "uint256",
                    "name": "safeTxGas",
                    "type": "uint256"
                },
                {
                    "indexed": false,
                    "internalType": "uint256",
                    "name": "baseGas",
                    "type": "uint256"
                },
                {
                    "indexed": false,
                    "internalType": "uint256",
                    "name": "gasPrice",
                    "type": "uint256"
                },
                {
                    "indexed": false,
                    "internalType": "address",
                    "name": "gasToken",
                    "type": "address"
                },
                {
                    "indexed": false,
                    "internalType": "address payable",
                    "name": "refundReceiver",
                    "type": "address"
                },
                {
                    "indexed": false,
                    "internalType": "bytes",
                    "name": "signatures",
                    "type": "bytes"
                },
                {
                    "indexed": false,
                    "internalType": "bool",
                    "name": "success",
                    "type": "bool"
                }
            ],
            "name": "ExecTransaction",
            "type": "event"
        },
        {
            "anonymous": false,
            "inputs": [
                {
                    "indexed": true,
                    "internalType": "address",
                    "name": "owner",
                    "type": "address"
                }
            ],
            "name": "RemovedOwner",
            "type": "event"
        },
        {
            "inputs": [
                {
                    "internalType": "address",
                    "name": "owner",
                    "type": "address"
                },
                {
                    "internalType": "uint256",
                    "name": "_threshold",
                    "type": "uint256"
                }
            ],
            "name": "addOwnerWithThreshold",
            "outputs": [],
            "stateMutability": "nonpayable",
            "type": "function"
        },
        {
            "inputs": [
                {
                    "internalType": "bytes32",
                    "name": "hashToApprove",
                    "type": "bytes32"
                }
            ],
            "name": "approveHash",
            "outputs": [],
            "stateMutability": "nonpayable",
            "type": "function"
        },
        {
            "inputs": [
                {
                    "internalType": "address",
                    "name": "",
                    "type": "address"
                },
                {
                    "internalType": "bytes32",
                    "name": "",
                    "type": "bytes32"
                }
            ],
            "name": "approvedHashes",
            "outputs": [
                {
                    "internalType": "uint256",
                    "name": "",
                    "type": "uint256"
                }
            ],
            "stateMutability": "view",
            "type": "function"
        },
        {
            "inputs": [
                {
                    "internalType": "uint256",
                    "name": "_threshold",
                    "type": "uint256"
                }
            ],
            "name": "changeThreshold",
            "outputs": [],
            "stateMutability": "nonpayable",
            "type": "function"
        },
        {
            "inputs": [],
            "name": "deployMPECDH",
            "outputs": [],
            "stateMutability": "nonpayable",
            "type": "function"
        },
        {
            "inputs": [
                {
                    "internalType": "address",
                    "name": "to",
                    "type": "address"
                },
                {
                    "internalType": "uint256",
                    "name": "value",
                    "type": "uint256"
                },
                {
                    "internalType": "bytes",
                    "name": "data",
                    "type": "bytes"
                },
                {
                    "internalType": "enum SafeMock.Operation",
                    "name": "operation",
                    "type": "uint8"
                },
                {
                    "internalType": "uint256",
                    "name": "safeTxGas",
                    "type": "uint256"
                },
                {
                    "internalType": "uint256",
                    "name": "baseGas",
                    "type": "uint256"
                },
                {
                    "internalType": "uint256",
                    "name": "gasPrice",
                    "type": "uint256"
                },
                {
                    "internalType": "address",
                    "name": "gasToken",
                    "type": "address"
                },
                {
                    "internalType": "address payable",
                    "name": "refundReceiver",
                    "type": "address"
                },
                {
                    "internalType": "bytes",
                    "name": "signatures",
                    "type": "bytes"
                }
            ],
            "name": "execTransaction",
            "outputs": [
                {
                    "internalType": "bool",
                    "name": "success",
                    "type": "bool"
                }
            ],
            "stateMutability": "payable",
            "type": "function"
        },
        {
            "inputs": [],
            "name": "getOwners",
            "outputs": [
                {
                    "internalType": "address[]",
                    "name": "",
                    "type": "address[]"
                }
            ],
            "stateMutability": "view",
            "type": "function"
        },
        {
            "inputs": [],
            "name": "getThreshold",
            "outputs": [
                {
                    "internalType": "uint256",
                    "name": "",
                    "type": "uint256"
                }
            ],
            "stateMutability": "view",
            "type": "function"
        },
        {
            "inputs": [
                {
                    "internalType": "address",
                    "name": "owner",
                    "type": "address"
                }
            ],
            "name": "isOwner",
            "outputs": [
                {
                    "internalType": "bool",
                    "name": "",
                    "type": "bool"
                }
            ],
            "stateMutability": "view",
            "type": "function"
        },
        {
            "inputs": [],
            "name": "nextExecSuccess",
            "outputs": [
                {
                    "internalType": "bool",
                    "name": "",
                    "type": "bool"
                }
            ],
            "stateMutability": "view",
            "type": "function"
        },
        {
            "inputs": [],
            "name": "nonce",
            "outputs": [
                {
                    "internalType": "uint256",
                    "name": "",
                    "type": "uint256"
                }
            ],
            "stateMutability": "view",
            "type": "function"
        },
        {
            "inputs": [],
            "name": "reconstructMPECDH",
            "outputs": [],
            "stateMutability": "nonpayable",
            "type": "function"
        },
        {
            "inputs": [
                {
                    "internalType": "address",
                    "name": "prevOwner",
                    "type": "address"
                },
                {
                    "internalType": "address",
                    "name": "owner",
                    "type": "address"
                },
                {
                    "internalType": "uint256",
                    "name": "_threshold",
                    "type": "uint256"
                }
            ],
            "name": "removeOwner",
            "outputs": [],
            "stateMutability": "nonpayable",
            "type": "function"
        },
        {
            "inputs": [],
            "name": "safeMPECDH",
            "outputs": [
                {
                    "internalType": "address",
                    "name": "",
                    "type": "address"
                }
            ],
            "stateMutability": "view",
            "type": "function"
        },
        {
            "inputs": [
                {
                    "internalType": "bool",
                    "name": "ok",
                    "type": "bool"
                }
            ],
            "name": "setNextExecSuccess",
            "outputs": [],
            "stateMutability": "nonpayable",
            "type": "function"
        },
        {
            "inputs": [
                {
                    "internalType": "address",
                    "name": "prevOwner",
                    "type": "address"
                },
                {
                    "internalType": "address",
                    "name": "oldOwner",
                    "type": "address"
                },
                {
                    "internalType": "address",
                    "name": "newOwner",
                    "type": "address"
                }
            ],
            "name": "swapOwner",
            "outputs": [],
            "stateMutability": "nonpayable",
            "type": "function"
        }
    ],
    "bytecode": "0x60406080815234620002d1576200202a803803806200001e81620002ec565b92833981018282820312620002d15781516001600160401b0390818111620002d15783019282601f85011215620002d1578351918211620002d65760059282841b602095868062000071818501620002ec565b809781520192820101928311620002d15790868094939201905b828210620002a5575050500151926000906004938285556001948560ff1960065416176006556002546200027d578451871162000255578587106200022d578793929186918491835b62000110575b5050506001600160a01b031682528190522080546001600160a01b0319168317905551905560025551611d179081620003138239f35b91939495879391935185101562000221575083821b87018501516001600160a01b03908116918215158062000216575b806200020b575b80620001fe575b15620001d557828852878752818c89205416620001ac5716865285855289862080546001600160a01b03191682179055926000198114620001995789959493929088019188620000d4565b634e487b7160e01b865260118352602486fd5b60648585898f519262461bcd60e51b845283015260248201526411d4cc8c0d60da1b6044820152fd5b60648585898f519262461bcd60e51b8452830152602482015264475332303360d81b6044820152fd5b508282821614156200014e565b503083141562000147565b508983141562000140565b959493819350620000da565b9060649288519262461bcd60e51b845283015260248201526423a999181960d91b6044820152fd5b9060649288519262461bcd60e51b8452830152602482015264475332303160d81b6044820152fd5b9060649288519262461bcd60e51b8452830152602482015264047533230360dc1b6044820152fd5b815193945091929091906001600160a01b0381168103620002d15781528693929184019084016200008b565b600080fd5b634e487b7160e01b600052604160045260246000fd5b6040519190601f01601f191682016001600160401b03811183821017620002d65760405256fe60806040818152600490813610156200001757600080fd5b600092833560e01c90816301c367471462000a3b575080630d582f1314620009535780632f54bf6e14620008f65780634f75e67214620008d05783816353c12852146200084457508063694e80c314620007e95780636a76120214620006ab5780637d83297414620006665780639de7305714620005d7578063a0e67e2b1462000492578063affed0e01462000472578063c175f2691462000440578063d4d9bdcd14620003ea578063e318b52b14620002a8578063e75235b814620002835763f8dc5dd914620000e757600080fd5b346200027f5760603660031901126200027f576200010462000a62565b916200010f62000a79565b92604435936200011e62000be8565b60015460001991908281019081116200026c57866200013f91101562000b50565b6001600160a01b039081169281908415158062000260575b620001629062000ac0565b1690818852876020526200017d8482888b2054161462000b85565b83885287602052858820541690875284872060018060a01b0319918282541617905582875284872090815416905560015480156200024d5701908160015560008051602062001cc28339815191528680a28360025403620001dc578480f35b620001f490620001eb62000be8565b84111562000b50565b600183106200022357508160209160008051602062001ca28339815191529360025551908152a1388080808480f35b6020606492519162461bcd60e51b8352820152600560248201526423a999181960d91b6044820152fd5b634e487b7160e01b875260118452602487fd5b50600185141562000157565b634e487b7160e01b885260118552602488fd5b8280fd5b838234620002a45781600319360112620002a4576020906002549051908152f35b5080fd5b838234620002a4576060366003190112620002a457620002c762000a62565b620002d162000a79565b6001600160a01b0360443581811694919290859003620003e557828091620002f862000be8565b86151580620003d9575b80620003ce575b620003149062000ac0565b868852876020526200032c82858a2054161562000af5565b169384151580620003c2575b620003439062000ac0565b1691828652856020526200035e848284892054161462000b85565b8386528560205281862054169184865281862060018060a01b0319938482541617905585528085208483825416179055828552842090815416905560008051602062001cc28339815191528380a260008051602062001c828339815191528280a280f35b50600185141562000338565b503087141562000309565b50600187141562000302565b600080fd5b5090346200027f5760203660031901126200027f5760019035913384526005602052808420838552602052832055337f02a62c535e077f15ec58ff8440ddeb490c3fc2f86c7dedc590799eab2835cbeb8380a380f35b505034620002a4576020366003190112620002a45735801515809103620002a45760ff80196006541691161760065580f35b5090346200027f57826003193601126200027f5760209250549051908152f35b5090346200027f57826003193601126200027f57600192601f845491620004b98362000bba565b855193831993909101831684016001600160401b03811185821017620005c25792620004ee8795928995875280845262000bba565b956020918284019701368837848452838252858420546001600160a01b03919085908316875b62000557575b505050855195828701938388525180945286019693905b8382106200053f5786880387f35b84518116885296820196938201939085019062000531565b969896949593948316808a14620005b5578651821015620005a25790818a92878360051b8a010152855284865262000595848a872054169162000b2a565b9197999695949662000514565b634e487b7160e01b855260328352602485fd5b989698959493956200051a565b604186634e487b7160e01b6000525260246000fd5b5090346200027f57826003193601126200027f57815190611041808301916001600160401b03831184841017620006535750602091839162000c41833930815203019083f0908115620006485750600380546001600160a01b0319166001600160a01b039290921691909117905580f35b51913d9150823e3d90fd5b634e487b7160e01b865260419052602485fd5b838234620002a45780600319360112620002a45760209181906001600160a01b036200069162000a62565b168152600584528181206024358252845220549051908152f35b50610140908336600319018313620007e257620006c762000a62565b926001600160401b03604435818111620007e557620006ea903690880162000a90565b969093606435916002831015620002a4576001600160a01b039360e435858116929190839003620003e5576101043593868516809503620007e25761012435918211620007e2575092620007cc926200076e7f93d2468270fd8756274a4e1c26ef06a10eb86586288cff419d95cbe2e90d088798969360209d989636910162000a90565b9290916200079660ff600654169b8d519a8b9a6024358c52602081908d01528b019162000c1f565b948c890152608435606089015260a435608089015260c43560a089015260c088015260e087015285830361010087015262000c1f565b941515968761012084015216930390a251908152f35b80fd5b8380fd5b50346200027f5760203660031901126200027f578135916200080a62000be8565b6200081a60015484111562000b50565b600183106200022357508160209160008051602062001ca28339815191529360025551908152a180f35b92905034620008cc5782600319360112620008cc576003546001600160a01b0316803b15620008c7578390828451809681936370c2a1fd60e11b83525af18015620008bd5762000892578380f35b6001600160401b038311620008aa5750523880808380f35b634e487b7160e01b845260419052602483fd5b82513d86823e3d90fd5b505050fd5b5050fd5b838234620002a45781600319360112620002a45760209060ff6006541690519015158152f35b838234620002a4576020366003190112620002a4576020916001600160a01b03806200092162000a62565b1691600183141592836200093c575b50505090519015158152f35b849293508152808552205416151583808062000930565b50346200027f57806003193601126200027f576200097062000a62565b91602435926200097f62000be8565b6001600160a01b03908116908115158062000a2f575b8062000a24575b620009a79062000ac0565b81865285602052620009bf8185882054161562000af5565b6001865285602052838620541681865283862060018060a01b03199182825416179055600186528184872091825416179055620009fe60015462000b2a565b908160015560008051602062001c828339815191528680a28360025403620001dc578480f35b50308214156200099c565b50600182141562000995565b849034620002a45781600319360112620002a4576003546001600160a01b03168152602090f35b600435906001600160a01b0382168203620003e557565b602435906001600160a01b0382168203620003e557565b9181601f84011215620003e5578235916001600160401b038311620003e55760208381860195010111620003e557565b1562000ac857565b60405162461bcd60e51b8152602060048201526005602482015264475332303360d81b6044820152606490fd5b1562000afd57565b60405162461bcd60e51b815260206004820152600560248201526411d4cc8c0d60da1b6044820152606490fd5b600019811462000b3a5760010190565b634e487b7160e01b600052601160045260246000fd5b1562000b5857565b60405162461bcd60e51b8152602060048201526005602482015264475332303160d81b6044820152606490fd5b1562000b8d57565b60405162461bcd60e51b8152602060048201526005602482015264475332303560d81b6044820152606490fd5b6001600160401b03811162000bd25760051b60200190565b634e487b7160e01b600052604160045260246000fd5b30330362000bf257565b60405162461bcd60e51b8152602060048201526005602482015264475330333160d81b6044820152606490fd5b908060209392818452848401376000828201840152601f01601f191601019056fe60a080604052346200020c578062001041803803809162000021828562000211565b83396020928391810103126200020c576200003c906200024b565b608081905260405163a0e67e2b60e01b8152906000906001600160a01b039082908490600490829085165afa9283156200020157829362000139575b508251926001600160401b0384116200012557680100000000000000008411620001255784908354858555808610620000fa575b500191808052848120905b848110620000e557604051610de0908162000261823960805181818160b9015281816101090152610cc70152f35b835183168282015592850192600101620000b7565b8480528583862091820191015b818110620001165750620000ac565b85815587935060010162000107565b634e487b7160e01b83526041600452602483fd5b9092503d8083833e6200014d818362000211565b81018482820312620001fd5781516001600160401b0392838211620001e1570181601f82011215620001f9578051928311620001e5578260051b90604051936200019a8884018662000211565b84528680850192820101928311620001e1579086809201905b838210620001c75750505050913862000078565b828091620001d5846200024b565b815201910190620001b3565b8480fd5b634e487b7160e01b84526041600452602484fd5b8380fd5b8280fd5b6040513d84823e3d90fd5b600080fd5b601f909101601f19168101906001600160401b038211908210176200023557604052565b634e487b7160e01b600052604160045260246000fd5b51906001600160a01b03821682036200020c5756fe6040608081526004908136101561001557600080fd5b600091823560e01c908162886f14146108a757816305a79e061461087f5781630b578ef5146105ad5781630be8fffc146105135781632079fb9a146104d357816394cf795e1461049d5781639811c7c11461047d578163d36671311461032e578163da138ce7146102f2578163de7af11114610299578163e18543fa146100ec575063ee97f7f3146100a657600080fd5b346100e857816003193601126100e857517f00000000000000000000000000000000000000000000000000000000000000006001600160a01b03168152602090f35b5080fd5b905082346102965780600319360112610296576001600160a01b037f00000000000000000000000000000000000000000000000000000000000000008116330361026557815b825481101561018e57808352600160209080825286852080549086815581610172575b50505090600261016d9282865252838681205561098c565b610132565b8652828620908101905b8181101561015557868155820161017c565b508383610199610ca7565b8051909390916001600160401b03831161025257600160401b83116102525750845482865580831061022c575b5060208094019085805284862090865b84811061021857877f0f01dbefd67125443fa34246c42775683312e65f996ec26b7b257f919926157861021289895191818392835282016109b1565b0390a180f35b8351821683820155928601926001016101d6565b858052826020872091820191015b81811061024757506101c6565b86815560010161023a565b634e487b7160e01b865260419052602485fd5b835162461bcd60e51b8152602081850152600b60248201526a37b7363c9036b0b9ba32b960a91b6044820152606490fd5b80fd5b905082346102965760203660031901126102965781356001600160a01b03811681036100e8576102c890610a4e565b91845193808310156102df57505082526020820152f35b634e487b7160e01b825260219052602490fd5b90503461032a57602036600319011261032a5735916001600160a01b03831683036102965750610323602092610ba7565b9051908152f35b8280fd5b5050346100e857816003193601126100e8578190828354905b81811061045057508392845b82811061041a575061036484610c90565b9361037184519586610c57565b808552610380601f1991610c90565b0160209036828701378591865b8481106103a5578551806103a18982610948565b0390f35b806103b26103eb926108ed565b6103d36103ce60018060a01b03809454600394851b1c16610ba7565b610bf7565b8b526001865284898c2054106103f0575b505061098c565b61038d565b6103f9836108ed565b9054911b1c1661041261040b8761098c565b968a610b93565b5238806103e4565b808652600160205281848720541061043b575b6104369061098c565b610353565b936104486104369161098c565b94905061042d565b808552600160205282852054848111610473575b5061046e9061098c565b610347565b935061046e610464565b828434610296576020366003190112610296575061032360209235610bf7565b5050346100e857816003193601126100e85780516103a1916104c9826104c2816109b1565b0383610c57565b5191829182610948565b90503461032a57602036600319011261032a573591805483101561029657506104fd6020926108ed565b905491519160018060a01b039160031b1c168152f35b90503461032a57602090816003193601126105a9573583526001808252828420835181548082529186528386208185019693949192879190855b8181106105965750505082610563910383610c57565b8451948186019282875251809352850195925b8281106105835785870386f35b8351875295810195928101928401610576565b825484529284019291870191870161054d565b8380fd5b9190503461032a57602090816003193601126105a9576105cb610ca7565b928493855b8151811015610875576001600160a01b036105eb8284610b93565b51163314610601576105fc9061098c565b6105d0565b50509091925060015b156108455761061833610ba7565b908185526002808552838620549086918754925b8381106107aa57505061063e84610bf7565b600019949061064f86821415610a13565b808952600193848952878a2054878201918211610797571061066f578880f35b8852828752858820805490600160401b821015610784579061069591858201815561091a565b81549060031b90878735831b921b1916179055875285528386208054908282018092116107715755855490929091908201908282119084885b858110610728575b5050505050506106eb575b8080808080808880f35b518181527f14b5aaffe09636095856f040f0cd5d32f1c44ccb98146070940a92c649b4d22391819061071e9082016109b1565b0390a138806106e1565b808a52818952878a20548461075e57851161074b576107469061098c565b6106ce565b50505050505050823880808080806106d6565b634e487b7160e01b8b526011845260248bfd5b634e487b7160e01b885260118452602488fd5b634e487b7160e01b8a526041865260248afd5b634e487b7160e01b8b526011875260248bfd5b8581036107c0575b6107bb9061098c565b61062c565b8089528288528689205482811490811561081d575b506107b257865162461bcd60e51b8152808601899052601f60248201527f70726576696f757320726f756e64206e6f742079657420636f6d706c657465006044820152606490fd5b600019810191508111610832578214386107d5565b634e487b7160e01b8a526011865260248afd5b82606492519162461bcd60e51b8352820152600c60248201526b6f6e6c79207369676e65727360a01b6044820152fd5b505090919261060a565b90503461032a57602036600319011261032a5760209282913581526002845220549051908152f35b82843461029657816003193601126102965760243592358152600160205281812090815484101561029657506020926108df9161091a565b91905490519160031b1c8152f35b9060009182548110156109065782805260208320019190565b634e487b7160e01b83526032600452602483fd5b80548210156109325760005260206000200190600090565b634e487b7160e01b600052603260045260246000fd5b6020908160408183019282815285518094520193019160005b82811061096f575050505090565b83516001600160a01b031685529381019392810192600101610961565b600019811461099b5760010190565b634e487b7160e01b600052601160045260246000fd5b600080548083528180526020928301927f290decd9548b62a8d60345a988386fc84ba6bc95484008f6362f93160ef3e56392905b8282106109f3575050505090565b83546001600160a01b0316855293840193600193840193909101906109e5565b15610a1a57565b60405162461bcd60e51b815260206004820152600c60248201526b1b9bc81cdd58da081cdb1bdd60a21b6044820152606490fd5b610a5790610ba7565b90610a6182610bf7565b9160001990610a7282851415610a13565b600093808552600160209281845260409283882054885490878201918211610b7f5703610b0b57508652808352818620546002845282872054809110908115610b02575b5015610ac457505050508190565b825260028186209252842054918201918211610aee5790610ae49161091a565b90549060031b1c90565b634e487b7160e01b84526011600452602484fd5b90501538610ab6565b87528184528287205490875282872054919493929110610b75576002825280862054610b3b575050505060039190565b8382939496925260028183209352812054928301928311610b61575090610ae49161091a565b634e487b7160e01b81526011600452602490fd5b5050505060029190565b634e487b7160e01b8a52601160045260248afd5b80518210156109325760209160051b010190565b6000908154915b828110610bbe5750505060001990565b610bc7816108ed565b905460039190911b1c6001600160a01b0390811690831614610bf157610bec9061098c565b610bae565b91505090565b600019908082148015610c4b575b15610c0e575090565b6000918254908101908111610c37578103610c27575090565b9060018201809211610b61575090565b634e487b7160e01b83526011600452602483fd5b50600054811015610c05565b601f909101601f19168101906001600160401b03821190821017610c7a57604052565b634e487b7160e01b600052604160045260246000fd5b6001600160401b038111610c7a5760051b60200190565b60405163a0e67e2b60e01b81526000906001600160a01b039082816004817f000000000000000000000000000000000000000000000000000000000000000086165afa928315610d9e578093610cfe575b50505090565b909192503d8082843e610d118184610c57565b82019060209283818403126100e8578051906001600160401b03821161032a57019382601f860112156100e857845191610d4a83610c90565b95610d586040519788610c57565b838752858088019460051b8201019485116100e8578501925b848410610d8657505050505050388080610cf8565b8351838116810361032a578152928501928501610d71565b604051903d90823e3d90fdfea2646970667358221220c9ce1c7e0b4bf06b1233f5cb2e4151b3b47eed716e46f8fb9e47b1fde15e727264736f6c634300081300339465fa0c962cc76958e6373a993326400c1c94f8be2fe3a952adfa7f60b2ea26610f7ff2b304ae8903c3de74c60c6ab1f7d6226b3f52c5161905bb5ad4039c93f8d49fc529812e9a7c5c50e69c20f0dccc0db8fa95c98bc58cc9a4f1c1299eafa2646970667358221220833aee9b4ff357ff4778d5318c9d41e1cda87eb2f9bd6fa6379415f70fd1de9264736f6c63430008130033",
    "linkReferences": {},
    "deployedLinkReferences": {}
}